:100000000C9452030C946F030C946F030C946F03C5
:100010000C946F030C946F030C946F030C946F0398
:100020000C946F030C946F030C94FE190C94BA1982
:100030000C94072C0C946F030C946F030C946F03B7
:100040000C946F030C946F030C946F030C946F0368
:100050000C946F030C94D51A0C946F030C946F03DB
:100060000C946F030C946F030C946F030C946F0348
:100070000C946F030C946F030C946F030C946F0338
:100080000C946F030C946F030C946F030C946F0328
:100090000C946F030C946F030C946F030C946F0318
:1000A0000C946F030C946F030C946F03000000001A
:1000B0000000000000000000000000000000000040
:1000C0000000000000000000000000000000000030
:1000D0000000000000000000000000000000000020
:1000E0000000000000000000000000000000000010
:1000F0000000000000000000000000000000000000
:1001000000000000000000000000000000000000EF
:1001100000000000000000000000000000000000DF
:1001200000000000000000000000000000000000CF
:1001300000000000000000000029FFFF0001010195
:100140000101010101010202020202020202020394
:100150000303030303030304040404040404050564
:100160000505050606060606070707070708080827
:1001700008090909090A0A0A0B0B0B0C0C0C0D0DD6
:100180000D0E0E0E0F0F0F1010111111121213136E
:100190001414151516161717181819191A1A1B1BE7
:1001A0001C1D1D1E1E1F2020212222232424252643
:1001B00026272829292A2B2C2D2D2E2F303132327B
:1001C000333435363738393A3B3C3D3E3F40414287
:1001D000434445464748494A4C4D4E4F505153546D
:1001E000555658595A5B5D5E5F6162646566686921
:1001F0006B6C6D6F7072737577787A7B7D7E8082A1
:10020000838587888A8C8E8F91939596989A9C9EE9
:10021000A0A2A3A5A7A9ABADAFB1B3B5B7BABCBEF9
:10022000C0C2C4C6C9CBCDCFD1D4D6D8DBDDDFE2C6
:10023000E4E7E9EBEEF0F3F5F8FAFDFF35002B000B
:100240002961D85C015100001E00140004001D004B
:10025000095D4D001F001A0016001B0039002A001E
:100260002000080007000600E3002C002100150014
:100270000900190000574A00220017000A00050073
:1002800000005000AE0001530000280000004F00A5
:1002900001570253000029710000510023001C0087
:1002A0000B00110000005200240018000D00100087
:1002B00002574B0025000C000E0036004C002C00AD
:1002C000260012000F0037002F002800270013001F
:1002D0003300380030004E002D0031003400D95C6E
:1002E000015100002900010001000100010000008F
:1002F0003A0001000100010001002F5D3B002A00CF
:10030000500001000100CA5C3C0052005100010095
:100310000100CB5C3D004C004F00010001002E5D50
:100320003E000100010001000000C45C010001006A
:100330000000010000002D5D01000100000001002F
:100340000000C35C3F00A800A900AA0000002C5DCB
:1003500040005F005C00590063002B5D41006000BD
:100360005D005A006200C65C420061005E005B00F6
:100370006200C75C4300550057005400670001004D
:10038000440045005600580001000000290001000B
:10039000E000E10001000000010001000100010097
:1003A000E300010001000100010001000100010063
:1003B000010001000100010029000100010001000D
:1003C00001000100E2000100010001000100010044
:1003D00000003500010001000000010000002900BC
:1003E0000100010000000100000001000100010007
:1003F00001000100000001000100010001000100F6
:10040000E6000100010001000100010001000100FF
:1004100001000100010001000100010001000100D4
:100420000100010001000100010001002800E500B9
:10043000010000000A00000000000306B2000800EE
:1004400001000000A800080002000200A000140043
:10045000030057494E5553420000000000000000C1
:1004600000008400040007002A00440065007600B4
:1004700069006300650049006E0074006500720049
:1004800066006100630065004700550049004400B4
:100490007300000050007B00390044004200370028
:1004A00046003100460044002D003700450037006B
:1004B00041002D0034003000300038002D0039009C
:1004C0003300360042002D00360042004100360065
:1004D0004300310039004100330030003800630030
:1004E0007D00000000001B0301636F6E6669677585
:1004F00072652E6572676F646F782D657A2E636FF3
:100500006D0005010980A101850319012AB70015B5
:100510000126B700950175108100C0050C0901A1E5
:1005200001850419012AA002150126A00295017572
:10053000108100C005010906A1018505050719E024
:1005400029E71500250195087501810205071900A5
:1005500029EF1500250195F07501810205081901A3
:100560002905950575019102950175039101C00555
:10057000010906A101050719E029E71500250195E4
:100580000875018102950175088101050719002987
:10059000FF150026FF009506750881000508190162
:1005A0002905950575019102950175039101C00911
:1005B000025200030100A0FA090400000103010136
:1005C00000092111010001224000070581030800F4
:1005D0000A090401000103000000092111010001C2
:1005E000226D000705820320000A0904020002FFB1
:1005F00000000007058303400005070504034000D1
:10060000051201100200000008973276490100012E
:1006100002000120034500720067006F0044006F74
:10062000007800200045005A00200047006C006F51
:10063000007700000030035A0053004100200054AE
:10064000006500630068006E006F006C006F00675B
:1006500000790020004C0061006200730020004916
:10066000006E006300000004030904050F39000256
:100670001C100500DF60DDD88945C74C9CD2659D04
:100680009E648A9F00000306B20045001810050012
:1006900038B60834A909A0478BFDA0768815B66541
:1006A0000001420011241FBECFEFDAE0DEBFCDBF54
:1006B00025E0AEE4B3E001C01D92AF3DB207E1F723
:1006C00013E0A0E0B1E0E8EEF2E602C005900D9282
:1006D000AE34B107D9F70E9464290C941A310C94F6
:1006E0000000E8EDF0E080818E7F80831092E200D0
:1006F0001092DA001092E100A0EEB0E08C918160DF
:100700008C9380818F77808319BCA7EDB0E08C91AA
:100710008E7F8C9380818F7E808310929C050895BC
:100720002091E4003091E50095E6A9012091EC00CC
:10073000822F817020FF06C08091E80080FF06C0F4
:1007400080E008952091E80022FD1AC08091C10543
:10075000882389F0853089F08091EB0085FD0FC0FA
:100760002091E4003091E50042175307F9F29150CF
:10077000E1F684E0089582E0089583E0089581E041
:100780000895EF92FF920F931F93CF937C018B01FB
:100790000E949003C82F882371F08C2FCF911F9156
:1007A0000F91FF90EF900895F70181917F01809361
:1007B000F100015011090115110579F38091E8004C
:1007C00085FDF2CF8091E8008E778093E8000E944B
:1007D0009003882381F3C82FE0CF8091C30587FF62
:1007E00013C08091E80082FF06C08091E8008B77FB
:1007F0008093E80004C08091C1058111F2CF089573
:100800008091C1058823D9F38091E80080FFF8CF5B
:100810008091E8008E77ECCF982F9093E900242FF9
:10082000762F50E0891731F07091EC002091ED00A7
:100830005091F00021FD07C09F5F973071F78093C2
:10084000E90081E008953091EB003E7F3093EB00AA
:100850003091ED003D7F3093ED003091EB00316041
:100860003093EB007093EC002093ED005093F00078
:100870002091EE0027FDE0CF80E00895CF92DF9237
:10088000EF92FF920F931F93CF93DF93C8EDD0E0C9
:1008900088818F7E8883E7EDF0E0808181608083AE
:1008A00084E082BF81E080939C0588818E7F88836D
:1008B00002EE10E0F80110821092DA0081EEC82EEC
:1008C000D12CF601108288818F7788838881806897
:1008D000888388818F7D888319BC1092C10510920E
:1008E000C2051092C0051092BF0590EEE92EF12CC2
:1008F000F70180818B7F808388818160888342E0DB
:1009000060E080E00E940C04F60180818E7F80838D
:10091000F801808181608083808188608083F70115
:1009200080818E7F8083888180618883DF91CF91F1
:100930001F910F91FF90EF90DF90CF900895FC01F1
:100940008091C9059091CA0586179707A0F0611597
:10095000710529F48091E8008E778093E80090E09B
:100960006115710551F4911108C08091E80082FF72
:1009700035C080E00895BC01F2CF8091C105882385
:10098000C9F18530C9F18091E80083FD31C08091C3
:10099000E80082FDEACF8091E80080FFE1CF8091FE
:1009A000F3002091F200382F6115710519F02830FD
:1009B000310558F091E02830310509F090E0809140
:1009C000E8008E778093E800CBCF84918093F1008C
:1009D0003196615071092F5F3F4FE6CF8091C1057D
:1009E000882341F0853041F08091E80083FFBDCF3E
:1009F00081E0089582E0089583E00895FC018091EC
:100A0000C9059091CA0586179707A0F06115710571
:100A100029F49091E8009E779093E80090E06115AA
:100A2000710551F4911108C08091E80082FF34C033
:100A300080E00895BC01F2CF8091C1058823C1F107
:100A40008530C1F18091E80083FD30C08091E800DD
:100A500082FDEACF8091E80080FFE1CF8091F30032
:100A60002091F200382F6115710519F028303105F9
:100A700058F091E02830310509F090E02091E8002D
:100A80002E772093E800CBCF81918093F1006150C5
:100A900071092F5F3F4FE7CF8091C105882341F057
:100AA000853041F08091E80083FFBECF81E008955A
:100AB00082E0089583E00895089580919E05089549
:100AC0002091C105243099F423E02093E90070E0DF
:100AD00050E040E00E94C103882321F010929A0563
:100AE00010929B058091E8008E778093E80008952E
:100AF00020915C012223C9F02091710527FF15C0C8
:100B0000E62FE695E695E695EE31D8F4E80FF92F55
:100B1000F11D677021E030E001C0220F6A95EAF70D
:100B200020958281282322830895FC01329608961D
:100B30002191621303C0DF0111971C92E817F90796
:100B4000B9F7089520915C012223C1F0209171052D
:100B500027FF14C0E62FE695E695E695EE31F8F40A
:100B6000E80FF92FF11D677021E030E001C0220F7E
:100B70006A95EAF78281822B82830895FC0132967E
:100B80002FEF30E04191641751F02F3F19F44111DC
:100B900001C0232F3F5F3630A9F72F3F09F4089596
:100BA000820F911D27FD9A95FC0162830895CF92D3
:100BB000DF92EF92FF926C01EE24FF2420E0C1143B
:100BC000D104E104F10419F0C701B60120E1C72EF8
:100BD000D82EE92EFF24C114D104E104F10419F048
:100BE000285FC701B6016B017C0154E0F694E794DD
:100BF000D794C7945A95D1F7C114D104E104F104F4
:100C000019F02C5FC701B6016B017C0142E0F6943C
:100C1000E794D794C7944A95D1F7C114D104E1045D
:100C2000F10419F02E5FC701B60196958795779567
:100C30006795672B682B692B09F02F5F822FFF9038
:100C4000EF90DF90CF900895809158058111109218
:100C500058050895809590915705982390935705CE
:100C600008958091570590915605892B90915505CF
:100C7000892B80934E03909158059923A1F0892BDD
:100C800080934E0380915C01882341F1809171052E
:100C900087FF24C08EE1E0E5F3E090E0815000F5AD
:100CA00091110E942406E0917305F091740530972C
:100CB000E1F080915C01882359F08091710587FFF4
:100CC00007C080914E0380934F0385E080934E03CD
:100CD0000280F381E02D8EE493E0099486E0DBCF7F
:100CE00021912223D9F29F5FD9CF0895E92FEE0FEA
:100CF000E90FEE0F8E0F982F977086958695869543
:100D000025E0829FF0011124E35EFA4F50E040E0BD
:100D100080E0219130E0092E02C0369527950A9493
:100D2000E2F721703327042E01C0220F0A94EAF75C
:100D3000822B4F5F5F4F4530510559F70895E92FDA
:100D4000EE0FE90FEE0F8E0F982F977041E001C064
:100D5000440F9A95EAF786958695869595E0899F42
:100D6000F0011124E35EFA4F30E020E070E0519191
:100D7000DF011197CB01022E02C0969587950A9448
:100D8000E2F7817081958527842385278C932F5FD7
:100D90003F4F2530310559F7089580911C059091FA
:100DA000EB04981301C008958F5F8770FACF8823F2
:100DB00041F08095909156058923809356050C94B7
:100DC00031060895882339F090915605982B909319
:100DD00056050C9431060895882321F00E942A06B6
:100DE0000C9431060895882339F090915705982B7B
:100DF000909357050C94310608952091E0043091AA
:100E0000E1042817390771F09093E1048093E0041E
:100E1000E0917305F0917405309721F00084F1851D
:100E2000E02D099408952091DE043091DF04281705
:100E3000390771F09093DF048093DE04E09173052D
:100E4000F0917405309721F00680F781E02D099428
:100E5000089510925605109255050E94310690E0B3
:100E600080E00E94130790E080E00C94FD06609300
:100E7000590570935A0580935B0590935C050C941B
:100E80002907882341F19CEF980F913A38F4682F95
:100E90008EE493E00E9478050C94310690E2980F5E
:100EA000983050F4877091E001C0990F8A95EAF765
:100EB000892F0E942A06F0CF9BE5980F933020F4EB
:100EC00090E080E00C941307885A873120F490E07A
:100ED00080E00C94FD060895CF93C82F882309F471
:100EE00067C08CEF8C0F813AC0F580915C0188233C
:100EF00011F18091710587FF1EC0EC2FE695E695F4
:100F0000E695F0E0E25BFC4F828190E04C2F477069
:100F100021E030E002C0220F331F4A95E2F782231E
:100F20009323892B91F06C2F8EE493E00E94780537
:100F30000E9431060AC0E0E5F3E086E593E02191E6
:100F4000C21789F38E179F07D1F76C2F8EE493E0B9
:100F50000E94A205CF910C94310680E28C0F88305C
:100F600068F4C77021E030E001C0220FCA95EAF7AB
:100F700080915705822B80935705ECCFEBE5EC0F62
:100F8000E33040F4F0E0E85CFD4F808190E0CF91E9
:100F90000C941307C85AC73158F4EC2FF0E0EE0F49
:100FA000FF1FE55CFD4F80819181CF910C94FD0680
:100FB000CF910895E0917305F0917405309721F079
:100FC0000190F081E02D099480E00895CF93DF93A4
:100FD000EC0181E0898B809157059F81892B80935B
:100FE0005705809156059885892B809356050E9458
:100FF0003106EA81FB81309739F06C897D89CE0119
:101000000696DF91CF910994DF91CF910895EF92E9
:10101000FF920F931F93CF93DF93EC018A85811189
:1010200039C0EB80FC8087E5F81A26E12E9DC001CF
:101030002F9D900D1124DC01A45FBE4F1496ED91FD
:10104000FC911597309731F054966D917C918E5E9E
:101050009E4F099586E18E9D80018F9D100D112474
:10106000045F1E4FF80187810E942A06F8018085DF
:10107000982F9095809156058923809356050E945C
:101080003106188219861B861E821D821092E30487
:101090001092E204DF91CF911F910F91FF90EF909A
:1010A0000895FA01811101C0FB0109948033910573
:1010B00038F5880F991F880F991FFC01E858FE4FDB
:1010C0005281338180818370E181A82FB0E070E983
:1010D000879FC001112488569C4FE80FF92FF11DFE
:1010E000B4976083FC01E50FF11DB4974083830F33
:1010F000911DFC01B4972083AA56BC4F81E08C93CC
:101100000895FF920F931F93CF93DF93182F062F0D
:10111000F42ED0E0C0E02F2D402F612FCE010E9491
:1011200056082196C033D105B1F7DF91CF911F91B9
:101130000F91FF9008958091D605837011F410925D
:1011400060018091D6058C7F81608093D6050895DB
:101150000C9481080C9456080F931F9310E0F8012B
:10116000EE0FFF1FE354FD4F9081905797FD91952F
:10117000000F111FF801E254FD4F00810052110BC6
:101180002003F001219FF00D112408E310E0091B5A
:10119000110997FD139540039001419F300D1124D3
:1011A000E20FF31F9F01220F331F2E0F3F1F37FF48
:1011B00002C021583F4F220F232F221F330B620FF3
:1011C0001F910F9108950F931F93522F10E0F80174
:1011D000EE0FFF1FE254FD4FA081A052BB0B9D01FB
:1011E0005203F001539FF00D1124000F111FD8017D
:1011F000A354BD4F0C910057110B40039001419F28
:10120000300D11242E0F3F1F37FF02C0215C3F4FCE
:1012100096E0359527959A95E1F7620F1F910F910A
:1012200008950F931F93522F10E0F801EE0FFF1F48
:10123000E254FD4FA081A052BB0B9D015203F0016F
:10124000539FF00D1124000F111FD801A354BD4F5F
:101250000C910057110B40039001419F300D112458
:101260002E0F3F1F37FF02C021583F4F220F232F61
:10127000221F330B620F1F910F910895EF920F936E
:10128000972F23E0029FB0011124759567956E0D8D
:10129000792F0F91EF900895322F50E0FA01EE0F61
:1012A000FF1FE254FD4F9081905297FD9195440F9E
:1012B000551FFA01E354FD4F2081231B330B290FE7
:1012C000311D97FD3A95620F0895E42FF0E0EE0F7F
:1012D000FF1FE254FD4F6081621B0895E42FF0E090
:1012E000EE0FFF1FE354FD4F6081621B0895622FD4
:1012F0000895E42FF0E0EE0FFF1FE354FD4F40810F
:1013000034EE439F412D1124E82FF0E050E0445E7D
:101310005F4FDA01A21BB1099D01B7FF03C03195F0
:101320002195310993E0220F331F9A95E1F7AF0120
:10133000421B530B9A0157FD20E0582F259F212D6A
:101340001124822F0895E42FF0E0EE0FFF1FE354E5
:10135000FD4F408134EE439F412D1124E72FF0E0F3
:1013600050E0445E5F4FDA01A21BB1099D01B7FF57
:1013700003C031952195310993E0220F331F9A95CF
:10138000E1F7AF01421B530B9A0157FD20E0279F65
:10139000212D1124722F0895FC019B01009729F43F
:1013A00080E077FF2BC080E80895AC0197FF04C070
:1013B00044275527481B590BB901640F751F37FD8A
:1013C00010C0241B350BC901A5E0880F991FAA95F1
:1013D000E1F70E94222D80E2861BF7FF0FC0819566
:1013E0000895CB0165E0880F991F6A95E1F7BA016E
:1013F000621B730B0E94222D80E6EECF0895EF92C0
:101400000F93CF93DF93D72FC82FC9010E19BA01BD
:101410000E94CC09602F681B7D2F8C2FDF91CF910C
:101420000F91EF9008950F93CF93DF93D72FC82F8D
:10143000C901BA010E94CC09682F600F7D2F8C2F43
:10144000DF91CF910F910895EF920F931F93CF9358
:10145000DF93D62FC72F182FC9010E19010FBA011C
:101460000E94CC09081B202F219F212D1124822F9F
:101470006D2F7C2FDF91CF911F910F91EF900895E9
:10148000EF920F931F93CF93DF93D62F172FC82F71
:10149000C9010E19070FBA010E94CC09702F781BE1
:1014A000719F712D11246D2F8C2FDF91CF911F9182
:1014B0000F91EF9008950F931F93CF93DF93D62F43
:1014C000C72F182FC901212F201B022FBA010E94FC
:1014D000CC09982F990F990F891B800F282F219FD6
:1014E000212D1124822F6D2F7C2FDF91CF911F9101
:1014F0000F9108950F931F93CF93DF93D62F172F3C
:10150000C82FC901272F201B022FBA010E94CC0926
:10151000982F990F990F782F791B700F719F712D4C
:1015200011246D2F8C2FDF91CF911F910F91089572
:10153000E82F86FDE0952E2F2F7086FD2F5FE69514
:10154000E695E695E670F0E0E059FE4F9181929FB6
:10155000902D212D112492959F702295207F922B02
:101560002081920F87FD919580E8890F0895AC0145
:101570008230910508F408959FEF413E8EE15807AF
:1015800040F49A0195E0369527959A95E1F798E011
:10159000920F61E0E62FE90FFF27FF1F9F013595AE
:1015A0002795822F229FF001239FF00DF00D11242B
:1015B0004E175F0738F49FEF920F961758F78FEF8B
:1015C000860F08952F3FE9F361E0620FF6CF0F9386
:1015D000CF93DF93D72FC82F47FD419588E390E045
:1015E000841B910947FD9395889FB001899F700DD9
:1015F000700D1124229FC001239F900D900D112486
:10160000860F971F0E94B70A982F990F890F682F8E
:10161000600F7D2F8C2FDF91CF910F91089530E0D7
:1016200020E0869F212D969F200D311D1124C90198
:101630000895AF92BF92CF92DF92FF920F931F93C4
:10164000CF93DF93362F472FE82FF0E0E45CFE4F77
:1016500071110FC0E4918E2F2E2F6E2F722FDF91FC
:10166000CF911F910F91FF90DF90CF90BF90AF90DF
:101670000895C72FD0E02491F22E022F10E056E0FB
:10168000659FC0011124EFEFF0E0BF010E940E2D15
:10169000832F90E0880F991F35E5369FD001379F43
:1016A000B00D11248A1B9B0B982F990F980F6F0177
:1016B000CC1ADD0AC09ED001C19EB00DD09EB00DE7
:1016C00011248B2F499FA0011124452F55276F010D
:1016D000C41AD50AC09EA001C19E500DD09E500DC7
:1016E00011245F01A91AB108AC9E6001AD9ED00C17
:1016F000BC9ED00C1124CD2CDD24EC19FD09E09FFB
:10170000E001E19FD00DF09FD00D1124ED2F62304C
:101710007105A1F050F46115710509F49ECF613097
:10172000710581F0EB2F852F98CF6430710569F03A
:1017300080F06630710509F490CFF4CFE22F2B2FA3
:101740008D2F8BCFE22F252F88CFEB2F822F2D2FA0
:1017500084CF2B2F8F2DE52F80CF9F92AF92BF92FA
:10176000CF92DF92EF92FF920F931F93CF93DF936D
:101770006C0180915D01C82FCC0FCC0FC80F15E014
:101780001C0FB12E113310F030E3B32E6091DA0547
:10179000669566958091D2059091D3050E940F0BB6
:1017A000F82E80E48F0D0E94980A90E8A92EA80ECA
:1017B0008F2D0E94980A20E8922E980ED0E0CB152B
:1017C00080F081E0103308F080E0DF91CF911F912D
:1017D0000F91FF90EF90DF90CF90BF90AF909F90D0
:1017E0000895FE01E35EFC4F808190915E018923A4
:1017F000A1F06091D7057091D8058091D905EF2CA3
:101800000C2F292D4A2DF60109950E94190B462F00
:10181000282F672FCE010E94AA082196D0CF7F9251
:101820008F929F92AF92BF92CF92DF92EF92FF92F0
:101830000F931F93CF93DF935C0180915D01C82FBD
:10184000CC0FCC0FC80F15E01C0FF12E113310F088
:1018500030E3F32E6091DA0566958091D205909180
:10186000D3050E940F0B782ED0E0CF1590F081E0C9
:10187000103308F080E0DF91CF911F910F91FF901E
:10188000EF90DF90CF90BF90AF909F908F907F9020
:101890000895FE01E35EFC4F808190915E018923F3
:1018A000C9F1CE01880F991F87599D4FFC01EC5A51
:1018B000FF4F2081422F4057550B6A018B5A9F4F93
:1018C000FC018081282F2052330B4901449F900155
:1018D000459F300D300D1124889CC001899C900DCE
:1018E000900D1124820F931F0E94B70A082F609158
:1018F000D7057091D8058091D905E72C9401A601F0
:10190000F50109950E94190B462F282F672FCE014C
:101910000E94AA082196A9CFCF92DF92EF92FF9260
:101920000F931F93CF93DF937C0180915D01C82FAC
:10193000CC0FCC0FC80F15E01C0FD12E113310F0B7
:1019400030E3D32E6091DA0566958091D2059091AF
:10195000D3050E940F0BC82ED0E0CD1568F081E0B2
:10196000103308F080E0DF91CF911F910F91FF902D
:10197000EF90DF90CF900895FE01E35EFC4F8081F1
:1019800090915E01892311F1CE01880F991F87592B
:101990009D4FFC01EB5AFF4F20812052330B8C5A94
:1019A0009F4FFC0140814057550B6091D7057091C6
:1019B000D8058091D9050C2DF70109950E94190BC6
:1019C000462F282F672FCE010E94AA082196C5CF47
:1019D000DF92EF92FF920F931F93CF93DF937C01DF
:1019E00080915D01C82FCC0FCC0FC80F15E01C0FE4
:1019F000012F113308F000E36091DA0566956695D2
:101A00008091D2059091D3050E940F0BD82ED0E083
:101A1000C01760F081E0103308F080E0DF91CF91D3
:101A20001F910F91FF90EF90DF900895FE01E35E0C
:101A3000FC4F808190915E01892391F06091D705E0
:101A40007091D8058091D9052D2D4C2FF70109955E
:101A50000E94190B462F282F672FCE010E94AA083B
:101A60002196D6CF9091710592FF06C0282F28713C
:101A70002830F9F4877F846093FF06C0282F2871EF
:101A80002831F1F4877E84612091720520FF06C021
:101A9000382F38713830D9F4877F816021FF06C034
:101AA000282F28712831D1F4877E816194FD877EAB
:101AB0000895282F24712430F9F68B7F8860DCCFBD
:101AC000282F2471243101F78B7E8861DDCF382FD8
:101AD0003171313019F78E7F8860E0CF282F217166
:101AE000213121F78E7E8861E1CFCF93DF93972F4D
:101AF00070E026E0929F600D711D1124FB0134E51A
:101B0000839FE00DF11D1124EE0FFF1FE45CFD4FDC
:101B1000C591D491CE01C238D105B9F1E8F5C133F0
:101B2000D10509F499C050F5C932D10509F48DC029
:101B3000CA32D10509F497C0C11542E5D40708F0AF
:101B4000B6C0C11521E5D20708F024C1C83ED105B1
:101B500008F09DC0C03ED10568F5C83AD10508F02F
:101B600089C0C53AD10508F0EDC0C130D10511F1E9
:101B7000209709F443C02497E8F440C0C533D10549
:101B800009F45CC0C933D105B9F620917105237001
:101B900089F080EE90E00EC0C33ED10591F168F46B
:101BA000C03ED105F9F0C23ED10531F62091710554
:101BB00022FD20C0DF91CF910895C63ED10561F18D
:101BC000C73ED10581F1C43ED10509F0B5CF2091C2
:101BD000720521FFEFCF8091710584FD0FC087EE64
:101BE00090E0E8CF2091710520FD01C13091720590
:101BF00030FFE0CF83EE90E024FFDCCF90E080E088
:101C0000D9CF2091710522FDF5C03091720530FDCC
:101C1000C0CF24FFCFCFF2CF2091710523FFCACFD1
:101C200024FDECCFDCCF2091710523FDE6C030917F
:101C3000720531FFEECF84EE90E0BCCF20917105AC
:101C400025FFB8CF89E290E0B5CF2091710525FF3F
:101C5000B1CF85E390E0AECF2091710526FFAACFEA
:101C60008AE290E0A7CF2091710526FFA3CF81E300
:101C700090E0A0CFCF3BD10508F6C85AD0E0CC0FFA
:101C8000DD1FC55CDD4F88819981946493CFC115B8
:101C900030E5D30708F062C0C11540E4D40708F06E
:101CA00059C0DA95C115DF4108F484CFA7CFC1151B
:101CB00036E5D30718F5C11545E5D40708F080C00F
:101CC000C11584E5D80708F076C09C2F96959695A7
:101CD000AE0143705527C115D34508F460C021E01B
:101CE00030E002C0220F331F4A95E2F740E2949F92
:101CF000C0011124822B932B9A685CCFC1153AE561
:101D0000D30778F4C11549E5D40708F063C0C115BD
:101D100088E5D80708F472CF9C2F8827806F906AD7
:101D200049CFCE0190568115904208F067CF8D2F94
:101D30008F710E94320D90E0982F882788279F711D
:101D40008C2B46C0C55AD0E0C85CDD4F888190E03E
:101D5000906430CFCE019F70906A2CCF9E01E4E05A
:101D600036952795EA95E1F723708C2F8695869511
:101D7000837030E2839FC0011124922BC37021E055
:101D800030E002C0220F331FCA95E2F7822B932B5B
:101D90009C6810CF9C2F8827816F906A0BCF21E021
:101DA00030E002C0220F331F4A95E2F740E2949FD1
:101DB000C0011124EBCF9C2F8827846F906AFACE44
:101DC0008C2F0E94320D90E0982F882788279F71D2
:101DD0009062F0CE8C2F8F700E94320D34E0D69539
:101DE000C7953A95E1F7CF709C2F9069E3CE89E3D0
:101DF00090E0E0CE82EE90E0DDCE86EE90E0DACEAE
:101E0000BF92CF92DF92EF92FF920F931F93CF93E7
:101E1000DF938C01C0909505D0909605E0909705D2
:101E2000F09098058091590590915A05A0915B0515
:101E3000B0915C05C82AD92AEA2AFB2ACFE1D0E072
:101E4000BC2ED701C6010C2E04C0B695A795979558
:101E500087950A94D2F780FD0EC0219788F7B12CA0
:101E60008B2DDF91CF911F910F91FF90EF90DF901D
:101E7000CF90BF900895B8018C2F0E94750D0197E7
:101E800061F3EECFCF93DF93EC010E94000FBE0110
:101E9000DF91CF910C94750D0E94420F292F2F7066
:101EA00092959F7092509E3078F4E92FF0E0E45EB6
:101EB000FE4C0C94362D803F19F020F4883E20F41F
:101EC00081E00895843FE1F380E00895883EC0F307
:101ED000813FD1F7F5CF822F869586958695089517
:101EE0009C013A9521153F4138F491FF03C082E0EF
:101EF000FB01099480E0FCCF0895CF93DF93EC01C0
:101F00000E944107CE01805E91096CEE76E0089751
:101F100010F067ED76E0CE01DF91CF910C94700F59
:101F2000CF93DF93EC01805E910963EF76E0089731
:101F300010F062EE76E0CE010E94700F8C2FDF91E0
:101F4000CF910C946C07CF93DF93EC010E94900F1C
:101F5000CE01DF91CF910C947D0FCF93DF93EC01F5
:101F60008881833061F487E292E00E94A30F87E2C8
:101F700092E00E94A30F87E292E00E94A30F888163
:101F8000843030F087E292E0DF91CF910C94A30F80
:101F9000DF91CF910895CF93DF93EC018881833057
:101FA00061F489E490E00E94A30F89E490E00E942C
:101FB000A30F89E490E00E94A30F8881843030F061
:101FC00089E490E0DF91CF910C94A30FDF91CF9142
:101FD0000895CF93DF93EC018881833061F486E22A
:101FE00092E00E94A30F86E292E00E94A30F86E295
:101FF00092E00E94A30F8881843030F086E292E064
:10200000DF91CF910C94A30FDF91CF910895FC0144
:102010008081813041F49185911114C0928599237A
:1020200089F082E00895823041F48185811107C0F2
:102030008285811106C083E0089586E0089585E0D9
:10204000089584E008950E940710809374038230FD
:1020500049F018F4813071F00895833039F08530FB
:1020600061F0089586EE90E00C94900F87E292E084
:102070000E94900F87E292E0F7CF87E292E00E9401
:10208000A30FF8CF0E94071080937203823049F0AB
:1020900018F4813071F00895833039F0853061F0A3
:1020A000089586E490E00C94900F89E490E00E94FB
:1020B000900F89E490E0F7CF89E490E00E94A30FAD
:1020C000F8CF0E94071080937003823049F018F413
:1020D000813071F00895833039F0853061F00895D2
:1020E00082EE90E00C94900F86E292E00E94900FB6
:1020F00086E292E0F7CF86E292E00E94A30FF8CF4B
:1021000027982F98089526982E98089525982D9809
:10211000089556985E980895279A2F9A0895269ABA
:102120002E9A0895259A2D9A0895CF92DF92EF92D4
:10213000FF92CF936B017C010E94D705C82F0E94AC
:1021400089100E9486100E9483100E948010C15046
:10215000C73040F4EC2FF0E0E65DFE4C0C94362DD9
:102160000E949210C701B601CF91FF90EF90DF90CF
:10217000CF9008950E9492100E948F10F3CF0E947A
:1021800092100E948C10EECF0E9492100E948F102D
:10219000F8CFCF92DF92EF92FF92CF93DF9300D0F0
:1021A00000D0CDB7DEB70E9495106B017C01809105
:1021B0009905882321F080919A05811115C0C0925C
:1021C0009505D0929605E0929705F09298050E94A9
:1021D00029070F900F900F900F90DF91CF91FF90F4
:1021E000EF90DF90CF900895198282E08A83C70133
:1021F000B6010E94D7058B838EEF8C8364E0CE01FD
:1022000001960E946005DBCF0F931F9341E050E0E1
:1022100060E070E004C0440F551F661F771F8A9569
:10222000D2F7CB01BA016095709580959095009199
:10223000950510919605209197053091980560239A
:102240007123822393231F910F910C94C9109091B5
:1022500054058095892380935405282F277071F4A5
:10226000282F082E000C330B9217130639F0859592
:10227000859585950E9404111092540508950F9339
:102280001F9341E050E060E070E004C0440F551F30
:10229000661F771F8A95D2F78091950590919605D4
:1022A000A0919705B09198058A019B01082B192BE5
:1022B0002A2B3B2BC901B8011F910F910C94C91017
:1022C000209828982198299822982A9823982B9822
:1022D00052985A9853985B983E98469808958098DB
:1022E000889A8198899A84988C9A85988D9A8698EC
:1022F0008E9A87988F9A0895CF93DF9300D00F928C
:10230000CDB7DEB79091C105943019F589837B83F1
:102310006A8382E08093E9008FEF9091E80081501A
:1023200095FD06C095ED9A95F1F700008111F5CF66
:102330008091E80085FF0DC050E040E063E070E070
:10234000CE0101960E94C1038091E8008E778093B0
:10235000E8000F900F900F90DF91CF910895BC018E
:1023600084E00C947C11BC0183E00C947C11CF932D
:10237000DF93EC0180915C018823B1F180917105BC
:1023800087FF32C060E282E08093E9008FEF909196
:10239000E800815095FD06C095ED9A95F1F7000093
:1023A0008111F5CF8091E80085FF1BC080915C0111
:1023B00070E050E040E0811104C050E040E068E08F
:1023C00070E0CE010E94C1038091E8008E77809377
:1023D000E80080E2FE01AFE9B5E001900D928A9538
:1023E000E1F7DF91CF91089568E081E0CDCF8FE3F1
:1023F0009CE90197F1F700C00000809174038230DE
:1024000079F028F4813039F0109274030895833004
:1024100011F08530C9F787E292E00E947D0FF4CF7A
:1024200086EE90E0FACF8FE39CE90197F1F700C0C8
:10243000000080917203823079F028F4813039F005
:10244000109272030895833011F08530C9F789E442
:1024500090E00E947D0FF4CF86E490E0FACF8FE306
:102460009CE90197F1F700C0000080917003823071
:1024700079F028F4813039F0109270030895833098
:1024800011F08530C9F786E292E00E947D0FF4CF0B
:1024900082EE90E0FACFEF92FF920F931F93CF93CB
:1024A000DF930E9489100E9486100E9483100E9470
:1024B000801088E8E82EF12C8FEF90E0F7019183EF
:1024C00080830AE810E0F80191838083CCE8D0E0B3
:1024D000998388830E949210FFEF20E782E0F150F9
:1024E00020408040E1F700C000000E948F109FEF65
:1024F000E0E7F2E09150E040F040E1F700C000007A
:102500000E948C102FEF80E792E021508040904095
:10251000E1F700C000000E948610EFEFF0E722E034
:10252000E150F0402040E1F700C000000E9483101D
:102530008FEF90E7E2E081509040E040E1F700C08B
:1025400000000E94801080915F058770FFEF8F9FD1
:10255000C001112495958795959587959927F70141
:1025600091838083F80191838083998388830E947B
:1025700089100E9486100E948310DF91CF911F91D5
:102580000F91FF90EF900C948010CF9384E090E037
:102590000E94D32EC82F81E290E00E94D32E982F64
:1025A0008C2FCF9108956FEE7EEF90E080E00E9437
:1025B000152F60E082E090E00E94F72E60E083E05B
:1025C00090E00E94F72E1092590510925A05109231
:1025D0005B0510925C0560E084E090E00E94F72EBD
:1025E00060E081E290E00E94F72E60E085E090E0FC
:1025F0000E94F72E60E086E090E00E94F72E6FEFD9
:1026000087E090E00E94F72E40E050E0BA0188E0B9
:1026100090E00E94092F60E08DE090E00E94F72E8C
:1026200040E050E0BA0188E190E00E94092F60E0AC
:1026300087E190E00E94F72E40E050E0BA018CE183
:1026400090E00E94092F60E080E290E00E94F72E67
:1026500040E050E0BA0188E190E00E94092F10921A
:102660005F0510926005109261051092620584E08A
:10267000806180935F0540915F0550916005609196
:102680006105709162058FE090E00E94092F40E0A3
:1026900050E0BA0183E190E00C94092F10925705A5
:1026A00080915C01E0E5F3E0882359F080917105A9
:1026B00087FF07C08EE1DF011D928A95E9F70C9430
:1026C000290786E0F8CF1F93CF93DF93CDB7DEB70E
:1026D000AA970FB6F894DEBF0FBECDBF83EC95E08E
:1026E0002091F100FC012193CF01F5E08B3C9F0785
:1026F000B9F78091C405893009F444C018F58230D7
:1027000009F4B7C0833009F46CC0813031F5809191
:10271000C305813A11F58091E800877F8093E80036
:102720008091C7059091C805892B41F560E28FE93A
:1027300095E070E00E94FE048091E8008B77809322
:10274000E8000BC08B3009F469C008F481C0823402
:1027500009F4A0C0853409F4BAC08091E80083FF71
:102760004BC28091C3059091C4059A3008F044C2D1
:10277000E92FF0E0EF5CFE4C0C94362D60E090E029
:1027800080E0D7CF8091C305813239F78091C705AA
:102790009091C805029708F78091E800877F8093A1
:1027A000E8008091E80082FF17C09091F3008091CB
:1027B000F200029729F48091F1008B7F813021F49F
:1027C0008091F10080939E058091E8008B77809343
:1027D000E8000E94ED03C1CF8091C1058111E1CFD6
:1027E000BCCF8091C305813A09F0B7CF8091C7056E
:1027F0009091C805892B09F0B0CF8091E800877FC0
:102800008093E8008091E80080FFFCCF80915C011C
:102810008093F1008091E8008E77D9CF8091C30535
:10282000813209F09ACF8091C7059091C805892B14
:1028300009F093CF8091E800877F8093E8000E94A1
:10284000ED038091C50580935C010E944E1385CFF6
:102850008091C305813209F080CF8091E800877FA5
:102860008093E8000E94ED038091C60580939D054A
:1028700074CF8091C305813A09F06FCF8091E80051
:10288000877F8093E8008091E80080FFFCCF8091F3
:102890009D05BECF8091C305803C09F05ECF80913D
:1028A000C7059091C805029739F58091C5059091AB
:1028B000C605892B09F58091E800877F8093E800A1
:1028C0006BE170E086EE94E00E949F0482CF8091DD
:1028D000C305803C09F041CF8091C7059091C805A0
:1028E000079751F48091E800877F8093E80062EBBE
:1028F00070E084E394E0E8CF8091EB008062809305
:10290000EB002BCF803899F0823809F075C18091A7
:10291000C7058F70873008F06FC18093E900809100
:10292000EB0085FB882780F91092E90006C08091B2
:10293000BF059091C005911182609091E800977F4A
:102940009093E8008093F1001092F1008091E800EC
:102950008E774EC1882309F43CC1823009F04CC106
:102960008091C50581113FC18091C7058F702FEF00
:10297000280F263008F040C18093E9002091EB0039
:1029800020FF31C1933031F48091EB00806280935D
:10299000EB0029C19091EB0090619093EB0021E056
:1029A00030E001C0220F8A95EAF72093EA001092E6
:1029B000EA008091EB008860EACF81111DC110917F
:1029C000C5051F778091E3008078812B8093E30019
:1029D0008091E800877F8093E8000E94ED0380915A
:1029E000E80080FFFCCF8091E30080688093E300E3
:1029F00082E0111183E08093C105FEC080588230CF
:102A000008F0FAC08091C5059091C6058C3D23E081
:102A10009207A1F583E08A838AE289834FB7F8940D
:102A2000DE01139620E03EE051E2E32FF0E0509308
:102A30005700E49120FF03C0E295EF703F5FEF7015
:102A40008E2F90E0EA30C0F0C7968D939D932F5F54
:102A5000243159F74FBF8091E800877F8093E800C9
:102A60006AE270E0CE0101960E94FE048091E800C7
:102A70008B778093E800C0C0C096E7CF4091C70530
:102A80005091C805292F33272330310551F1A0F487
:102A90002130310509F452C062E570E08FEA95E01B
:102AA0002230310509F0A8C02091E800277F20934B
:102AB000E8000E949F04DACF2132310539F1223239
:102AC000310581F12F30310509F096C0EDE6F6E0D1
:102AD000649170E08BE696E06115710509F48CC095
:102AE000E3CF99278130910571F0009731F002977B
:102AF00009F082C0E3E1F6E002C0E7E6F6E06491A7
:102B000070E0CF01E9CFE5E3F6E0F9CF41155105DB
:102B1000D1F04130510509F06FC069E070E08AEDF5
:102B200095E0C2CF4115510599F04130510509F0AA
:102B300063C06DE670E082E095E0B6CF62E170E0E0
:102B400081E096E0B1CF69E070E081EC95E0ACCF38
:102B500060E470E08FE695E0A7CF803809F04CC0C4
:102B60008091E800877F8093E8008091C205809380
:102B7000F100ECCE811140C01091C5051230E0F596
:102B80008091E800877F8093E8001093C2050E943F
:102B9000ED03112311F084E005C08091E30087FD6F
:102BA000FACF81E08093C10542E061EC81E00E94B0
:102BB0000C0442E261EC82E00E940C0442E361EC0E
:102BC00083E00E940C0442E360EC84E00E940C0469
:102BD00013C08091C505813079F481E0933009F00C
:102BE00080E08093C0051092E9008091E800877F23
:102BF0008093E8000E94ED038091E80083FF0AC003
:102C00008091E800877F8093E8008091EB008062EC
:102C10008093EB00AA960FB6F894DEBF0FBECDBF2F
:102C2000DF91CF911F9108950F931F93CF93DF935F
:102C3000082F000FEB0114E210938203E3E8F3E0A6
:102C4000DE018D91819383E0E339F807D1F724E623
:102C500030E041E150E062E873E0802F0E94E32C15
:102C6000105F6096143B41F7DF91CF911F910F9158
:102C7000089580919603882329F068E973E084E73A
:102C80000E9414161092960380919703882329F0CE
:102C900068E274E087E70E94141610929703089583
:102CA000E2E8F3E06083418324E630E042E050E074
:102CB000BF01880F0C94E32CEF92FF920F931F93A8
:102CC000CF93DF93E82E062F10E004521B4FF8013C
:102CD0008081882381F0F2E16F9FE0011124C854C4
:102CE000DB4FF12C49916F2D8E2D0E945016F394DD
:102CF00082E1F812F7CFF8011082DF91CF911F9196
:102D00000F91FF90EF900895CF93DF93C82F4BE082
:102D10006DEF0E94501640E06AE08C2F0E94501622
:102D20008FE39CE90197F1F700C0000040E060E00C
:102D30008C2F0E94501640E061E08C2F0E945016AC
:102D400040E066E08C2F0E94501640E06DEF8C2F23
:102D50000E945016D0E040E06D2F8C2F0E9450163C
:102D6000DF5FD231C1F740E06D2F8C2F0E945016EB
:102D7000DF5FD432C1F740E06D2F8C2F0E945016D8
:102D8000DF5FD43BC1F74BE06DEF8C2F0E945016F4
:102D900041E06AE08C2F0E94501640E06DEF8C2FCE
:102DA000DF91CF910C9450166F927F928F929F92E9
:102DB000AF92BF92CF92DF92EF92FF920F931F9349
:102DC000CF93DF930E942E2C84E70E94841687E71E
:102DD0000E94841668E7E62E61E0F62ED12CC12C05
:102DE00072E1772EE8E08E2E912CAA24A394B12CC8
:102DF00066246394F701418150E0CA0184970281FF
:102E00000452110BC381C452DD0BF601EE0FFF1FFC
:102E1000EE0FFF1FE858FE4F2081237030E0FC01C9
:102E200097FD379643E0F595E7954A95E1F7729E51
:102E3000A001739E500D112448545B4FE40FF52FF1
:102E4000F11DB4010E94222DA50101C0440F8A95F5
:102E5000EAF78081842B8083F80117FD379693E091
:102E6000F595E7959A95E1F7729EC001739E900DD6
:102E7000112488549B4FE80FF92FF11DC801B401AC
:102E80000E94222DA50101C0440F8A95EAF7808196
:102E9000842B8083FE01D7FD379683E0F595E79577
:102EA0008A95E1F7729EC001739E900D112488549B
:102EB0009B4FE80FF92FF11DCE01B4010E94222D86
:102EC000A50101C0440F8A95EAF78081842B808395
:102ED00024523B4FF9016082FFEFCF1ADF0A84E0F2
:102EE000E80EF11CE0E3CE16D10409F083CF60E0D8
:102EF00084E70E945C1661E087E7DF91CF911F9124
:102F00000F91FF90EF90DF90CF90BF90AF909F9088
:102F10008F907F906F900C945C161F93CF93DF93EC
:102F2000EC01FC01E35EFC4F80816823A1F00E946C
:102F3000882D182F0E94882D612F782F8091D90518
:102F40000E94190B462F282F672FCE01DF91CF91BA
:102F50001F910C94AA08DF91CF911F910895DF92E1
:102F6000EF92FF920F931F93CF93DF938C01FC019D
:102F7000E35EFC4F8081682381F1D090D805D09129
:102F8000D905C091D705EC2EF12C0E94882D282F51
:102F9000C7018C549F4F68E671E00E94222D8E1964
:102FA0009F0997FD0396959587959595879523702D
:102FB0006C2F289F600D11247D2D8D2F0E94190BE1
:102FC000462F282F672FC801DF91CF911F910F91B6
:102FD000FF90EF90DF900C94AA08DF91CF911F91A2
:102FE0000F91FF90EF90DF90089545E050E06CE185
:102FF00070E086ED95E00C94E72E9091D6059370E5
:1030000041F08093D7056093D8054093D9050C947F
:10301000F5170895E6EDF5E0438120E1421B08F441
:1030200040E08181628190E00C94FD17E6EDF5E0CF
:10303000438120E1420F08F44FEF8181628190E0EB
:103040000C94FD17E6EDF5E0628120E1621B08F4C7
:1030500060E08181438190E00C94FD17E6EDF5E09E
:10306000628120E1620F08F46FEF8181438190E07B
:103070000C94FD17E6EDF5E0818143816281885073
:10308000990B0C94FD17E6EDF5E0818190E043810A
:10309000628108960C94FD179091D605937089F083
:1030A000811107C094609093D605109260010C9432
:1030B000F517893110F09066F6CF880F880F982B9E
:1030C000F2CF08958091D60586958695815009F4B2
:1030D00088E10C944C188091D605869586958F5F73
:1030E000893108F081E00C944C180C944C18E6EDF2
:1030F000F5E0248130E1230F08F42FEF24830C94B2
:10310000F517E6EDF5E0248130E1231B08F420E01B
:1031100024830C94F517E6EDF5E085E38083809138
:10312000610190916201A091630181839283A383E5
:103130008CE384830C94F5170E94D41690E080E011
:103140000E94E12E8F3E9E4F21F00E94D3120E94DA
:103150008B1845E050E06CE170E086ED95E00E9450
:10316000C32E8091D6058C7F11F40C948B18089592
:1031700080E290E0909351018093500180916E0322
:1031800081110EC00E942E2C81E080936E032FEFE0
:1031900083ED90E3215080409040E1F700C00000B3
:1031A00064E670E080E40E94342C90935101809397
:1031B0005001892B09F04EC064E670E080E00E9467
:1031C000902C9093510180935001892B09F042C0BB
:1031D00064E670E080E00E94902C9093510180930F
:1031E0005001892BB9F564E670E08FE30E94902CC2
:1031F0009093510180935001892B61F50E940A2D13
:1032000064E670E080E40E94342C90935101809336
:103210005001892BF9F464E670E08CE00E94902C58
:103220009093510180935001892BA1F464E670E0E2
:1032300080E00E94902C9093510180935001892B43
:1032400049F464E670E08FE30E94902C9093510162
:10325000809350010E940A2D809150010895CF93D0
:10326000C82F873070F58091500190915101892BC2
:1032700089F564E670E080E40E94342C909351015B
:1032800080935001892BD1F464E670E082E10E94C2
:10329000902C9093510180935001892B79F481E017
:1032A00090E001C0880FCA95EAF764E670E0809567
:1032B0000E94902C9093510180935001CF910C94D7
:1032C0000A2D8A30B9F040F4883071F0893079F0F5
:1032D000209A2898CF9108958C3091F070F08D301D
:1032E000B9F73E9A4698F6CF219A2998F3CF229AB9
:1032F0002A98F0CF239A2B98EDCF529A5A98EACF7A
:10330000539A5B98E7CFCF93873050F58091500167
:1033100090915101C0E0892B71F464E670E081E482
:103320000E94342C9093510180935001892B31F0ED
:10333000C0E00E940A2D8C2FCF91089584E690E082
:103340000E94BF2C97FF05C09093510180935001BC
:10335000EFCFC82FC0951092510110925001E9CFC4
:10336000CFB18FB1869586958C73C3708C2BC82F87
:10337000C095E1CF1F920F920FB60F9211242F9399
:103380003F934F935F936F937F938F939F93AF93ED
:10339000BF93CF93DF93EF93FF93D091E900DF705A
:1033A0008091EC00C82FC17080FDC0E81092E90048
:1033B0008091F000877F8093F00078940E946313DF
:1033C0001092E9008091F00088608093F000CD2B8E
:1033D000CF70C093E900FF91EF91DF91CF91BF9142
:1033E000AF919F918F917F916F915F914F913F919D
:1033F0002F910F900FBE0F901F9018951F920F9254
:103400000FB60F9211242F933F934F935F936F93B7
:103410007F938F939F93AF93BF93EF93FF9380918D
:10342000E10082FF09C08091E20082FF05C0809127
:10343000E1008B7F8093E1008091DA0080FF24C05F
:103440008091D80080FF20C08091DA008E7F809329
:10345000DA008091D90080FF9BC080E189BD82E1C4
:1034600089BD09B400FEFDCF81E08093C105809144
:103470009C05811109C00E9471030E943E04809145
:10348000E20084608093E2008091E10080FF17C039
:103490008091E20080FF13C08091E2008E7F8093D4
:1034A000E2008091E20080618093E2008091D80088
:1034B00080628093D80019BC85E08093C10580911B
:1034C000E10084FF29C08091E20084FF25C080E1F3
:1034D00089BD82E189BD89B5982F917080FFFBCFAE
:1034E0008091D8008F7D8093D8008091E1008F7EFD
:1034F0008093E1008091E2008F7E8093E2008091D2
:10350000E20081608093E2008091C205882309F483
:1035100045C084E08093C1058091E10083FF27C00E
:103520008091E20083FF23C08091E100877F809338
:10353000E10082E08093C1051092C2058091E10014
:103540008E7F8093E1008091E2008E7F8093E20085
:103550008091E20080618093E20042E060E080E0E0
:103560000E940C048091F00088608093F000FF912D
:10357000EF91BF91AF919F918F917F916F915F91EB
:103580004F913F912F910F900FBE0F901F90189564
:1035900019BC1092C10510929C0576CF8091E30072
:1035A00087FD93E09093C105B7CF78941F921FB623
:1035B0001F9211248F939F93AF93BF938091CB055C
:1035C0009091CC05A091CD05B091CE050196A11D9D
:1035D000B11D8093CB059093CC05A093CD05B093FE
:1035E000CE05BF91AF919F918F911F901FBE1F90ED
:1035F00018952FB7F8948091CB059091CC05A091A8
:10360000CD05B091CE052FBF08950F931F93CF9393
:10361000DF93C62FD42F022FFC0182818823A1F0D3
:103620006093D1050E94F91A9093D0058093CF053D
:10363000C77081E001C0880FCA95EAF7DF91CF918A
:103640001F910F910C94F3068091D105681343C02C
:103650002091CF053091D0054FB7F8948091CB05DC
:103660009091CC05A091CD05B091CE054FBF821BA6
:10367000930B883C910578F510E21D0F6D17B9F09A
:1036800080E2860F883040F4C77081E001C0880F67
:10369000CA95EAF70E94EC06183048F481E09D2FA5
:1036A000977001C0880F9A95EAF70E94F306802F61
:1036B0000E946C07802F0E944107183098F4D77041
:1036C00081E001C0880FDA95EAF7DF91CF911F9171
:1036D0000F910C94EC06C77081E001C0880FCA9569
:1036E000EAF7F3CFDF91CF911F910F9108954F9299
:1036F0005F926F927F928F929F92AF92BF92CF9282
:10370000DF92EF92FF920F931F93CF93DF9300D03E
:1037100000D00F92CDB7DEB77C01DC0113968D91FE
:103720009C911497892B41F01C911196DC90812F6C
:103730008D218F3F09F085C60F900F900F900F904D
:103740000F90DF91CF911F910F91FF90EF90DF903D
:10375000CF90BF90AF909F908F907F906F905F9031
:103760004F9008950E94000F082F682F89819A8139
:103770000E949F06E12FF0E0B6E0DB9EE00DF11D18
:10378000112424E5029FE00DF11D1124EE0FFF1F0F
:10379000E45CFD4F05911491D70112968C91811133
:1037A00044C080919905811181C00A32BDE51B0793
:1037B00009F499C00B32EDE51E0709F470C1033C12
:1037C000FCE51F0709F093C1D70112968C9188235D
:1037D000E9F090915E0180915F059F3F09F080C103
:1037E00010925E018F7E80935F0540E060E080E094
:1037F0000E94A80840915F055091600560916105A5
:10380000709162058FE090E00E94092F809154052D
:10381000877009F491CFD70112968C91882309F40F
:103820008BCF82E00E94271187CF80914E0190912B
:103830004F01019609F4B5CF6CE0C62E61E0D62E9B
:10384000B12CA12C9924939480914E0190914F0119
:103850008A159B050CF4A5CFF60186818823F9F023
:10386000818592858017910739F48091E2049091C7
:10387000E3048017910799F0D6011F969C921F9739
:103880001C961C930E931B9751968C91811103C02B
:10389000C6010E94E607C60106960E940708BFEF10
:1038A000AB1ABB0AE6E1CE0ED11CCECF80919A05B1
:1038B000882309F47ACF1982D70112968C9181114D
:1038C00010C082E18A83D7018C918B8311968C91F1
:1038D0008C838EEF8D8365E0CE0101960E9460059A
:1038E00064CF81E1EFCFD70112968C918823C9F183
:1038F00080915F0591E0980F9770887F953008F46C
:10390000892B80935F0580915F058770BFEF8B9F48
:10391000C001112495958795959587959927909342
:1039200089008093880090938B0080938A00909305
:103930008D0080938C0040915F05509160056091EF
:103940006105709162058FE090E00E94092F6091FF
:1039500095057091960580919705909198050E9424
:103960009510C80197558F3F910511F008F013C1CC
:1039700020914E0130914F012817390724F490937C
:103980004F0180934E01D70112962C91129736E188
:10399000389F5001399FB00C1124F501E45FFE4FB0
:1039A0006F01208B12969C918681992309F4E6C0C1
:1039B000128701878F5F86830E94F91AD6011E96AF
:1039C0009C938E931D978091580517968C9317970B
:1039D0008091560590915705892B18968C931897CE
:1039E000ED91FC911197309739F054966D917C913F
:1039F000C5018E5E9E4F09951093E3040093E20487
:103A0000D70112969C91992309F42DC51092D105E6
:103A10000230BCE51B0708F4CBC10631ECE51E07FC
:103A200038F098012B5F3C452730310508F0C0C1C4
:103A30000E94C51290937205809371050F30FCE5CA
:103A40001F0709F496C108F017C108303CE51307B9
:103A500009F479C108F0EAC004309CE5190709F4BB
:103A600066C108F0D2C00230BCE51B0709F45BC197
:103A700080917105826003301C4509F4E9C06091B2
:103A800071051091720584E090E00E94F72E612F7D
:103A900081E290E00E94F72E0E944E13B7CEF7010C
:103AA0008281882309F45DCF90915F05892F877FFC
:103AB00093FF886080935F0583FF05C040E060E06E
:103AC00080E00E94A80840915F05509160056091D8
:103AD0006105709162058FE090E00E94092F41CF4F
:103AE0009FEF90935E01806180935F0583CE0D32DE
:103AF000BDE51B0731F178F40C32FDE51F0709F035
:103B000030CFD70112968C91882309F47FCE81E0C3
:103B10000E9475187BCE0E322DE5120709F10F3287
:103B20003DE5130709F01DCFF7018281882309F4D1
:103B30006DCE81E00E9475184FEF6FEF8BE190E042
:103B40000CC0F7018281882309F460CE81E00E94D5
:103B500075184FEF6FEF8CEA90E00E94FD1756CE7C
:103B6000D70112968C91882309F450CE81E00E94EF
:103B7000751840E86FEF86E590E0EFCF882309F4F1
:103B80003FCF8189882309F43BCFC5018E5E9E4FCC
:103B90000E94070835CF043FFCE51F0739F188F480
:103BA000093D3CE51307F1F00A3D8CE5180751F19A
:103BB000083D9CE5190709F023CF26E241EE61EEAE
:103BC0000DC0063FACE51A07C9F0A0F027E245EEAC
:103BD00066EE073FECE51E0709F012CFC7010E9411
:103BE000051B14CE27E245EE65EEF8CF26E241EE46
:103BF00060EEF4CF27E245EE64EEF0CF26E241EE30
:103C000062EEECCF28E241E0EFCF80917105806158
:103C10000630FCE51F07E1F08091710588600730F0
:103C20001C45B0F080917105806212C00B303CE5FC
:103C3000130709F496C078F409309CE5190709F4D4
:103C400086C0809171058C600A301C4509F017CF41
:103C50008093710514CF809171058B7F0D30BCE589
:103C60001B07B1F3809171058D7F0E301C4580F3E9
:103C700080917105877FECCF0B3FFCE51F0709F4AE
:103C80005AC048F502313CE5130709F47AC060F4E4
:103C900000319CE5190709F470C0809171058F7B94
:103CA00001311C45A9F2EBCE0431BCE51B0709F438
:103CB00076C008F46CC005311C4509F0E0CE809157
:103CC000710582FB992790F921E0922790FB82F9F8
:103CD00090FB83F9BDCF0E3F2CE5120709F445C0D8
:103CE00070F40C3F8CE5180751F1809172058E7FBE
:103CF0000D3F1C4509F0C3CE80937205C0CE01155F
:103D0000ADE51A0709F447C040F101301D4509F03F
:103D1000B6CE80917205982F909591708E7F892BE9
:103D200090FB81F9E9CF80917105816091CF8091FD
:103D3000710584608DCF809172058160DDCF8091A7
:103D400072058260D9CF80917105806481CF0E9415
:103D50004E138091710580687BCF809172058360DE
:103D6000CBCF809171058E7F73CF809172058D7F4F
:103D7000C3CF809171058F7E6BCF809171058F7D50
:103D800067CF0E944E13809171058F7761CF80912C
:103D90007105837F5DCF809172058C7FADCF0E94CE
:103DA0004E1390917105892F97FB87F9805850CF5A
:103DB000809157050631FCE51F0709F062C38A7A36
:103DC00091E009F490E09093E40469E2811165E3E5
:103DD0008EE493E00E94A2050E94310617CD8091E7
:103DE000D60591E089278093D605109260010E9444
:103DF000F5170CCD42E658E16BE678E10E945108D8
:103E000005CD4BE658E162E678E1F8CF4AE358E1A8
:103E100063E478E1F3CF43E458E16AE378E1EECF7D
:103E200042E258E16EE278E1E9CF4EE258E162E227
:103E300078E1E4CF4AE058E166E178E1DFCF46E19E
:103E400058E16AE078E1DACF41E858E167E778E1E4
:103E5000D5CF47E758E161E878E1D0CF85E058CE8B
:103E60008DE056CE82E154CE0F3D2CE5120709F4C9
:103E700046C009303DE5130709F444C001151C454F
:103E800009F047C00E944E139FEFA4E3BCE091509D
:103E9000A040B040E1F700C00000F89481E08093BA
:103EA000E00080E28093D8001092C900EFE1FEE4C8
:103EB0003197F1F700C000001DBA109268001CBCD9
:103EC00010BE1FBA10927A0010926E0010926F000E
:103ED00010927100109272001092C9001092BC00F2
:103EE00014B817B81AB81DB810BA1092BC0015B89B
:103EF00018B81BB81EB811BA0C94003F87CC0E94AA
:103F0000D31284CC80919B0591E0892780939B05F7
:103F10007DCCF70100811181992309F440C0C801CB
:103F20000E94000FD82E682FC8010E949F06B8017A
:103F30008D2D0E94750D8C01882ED7011596AC90A1
:103F40001597A2944FE0A4221296DC90D110109203
:103F5000560580915405877099F0DD2089F0812FF6
:103F6000807F803421F080E2800F883048F082E04A
:103F70000E942711809154058770CC24C39481112D
:103F8000C12CB12EB2943FE0B322BBE0BB1508F4C4
:103F90003DC0EB2DF0E0E55CFE4C0C94362DC801E5
:103FA0000E947606D82EC3CFE12FEF70AE2E107F81
:103FB00019F0A29420EFA222DD20C9F0AA2069F016
:103FC00080E2800F883010F081100BC0809157057F
:103FD000A82AA09257050E943106802F0E946C07E4
:103FE00015C080915605A82AA0925605F4CF802FBF
:103FF0000E944107AA2051F0005E083010F08110A5
:1040000043C08A2D0E942A060E943106AB2DA8507B
:10401000BB0B149710F40E94DA07CC20A9F0809112
:10402000540580FD11C0F70112828595859585950F
:104030000E943F11C7010E94771B8091540585950E
:10404000859585950E94041185E0F701DE011196A2
:1040500001900D928A95E1F789819A810E947606F6
:104060009A81E981F0E026E0929FE00DF11D112494
:1040700034E5839FE00DF11D1124EE0FFF1FE45C7A
:10408000FD4F8591949158CBA09480915605A8221C
:10409000A0925605B9CFF12FFF709F2E107F1032DE
:1040A00019F0929490EF9922882041F021E0821635
:1040B00031F1DD2079F1AA2041F18FCFDD2091F09F
:1040C00090915805892D892BA11003C00E94F306F9
:1040D0009DCF31E0A312FACF891709F497CF8093CF
:1040E000580594CFA11006C00E942406892D0E9475
:1040F000EC068CCF81E0A81609F488CFF5CFDD203F
:1041000031F091E09A1508F481CF892DDFCFA1100D
:104110007DCFECCFAA2051F3A9E38A1209C0BFEFEB
:10412000E7EEF3E0B150E040F040E1F700C00000FE
:10413000802F0E9441076ACF812F869586958370D4
:1041400061F0813009F062CFC8019370D11002C0D4
:1041500090E080E00E94FD0659CFC8019370D11015
:1041600002C090E080E00E94130750CF812F83703F
:1041700009F066C0D1104ACF802F8295869587704E
:10418000880F880F602F6F70462E512C712C612C78
:10419000082E04C0440C551C661C771C0A94D2F7E8
:1041A00040E050E0BA0104FF0FC04FE050E060E093
:1041B00070E004C0440F551F661F771F8A95D2F721
:1041C0004095509560957095812F86958695837062
:1041D000823019F1D8F40091590510915A052091B7
:1041E0005B0530915C05813069F0442955296629C9
:1041F0007729CB01BA0160237123822393230E9484
:10420000370704CF402A512A622A732ACB01BA0108
:104210006429752986299729F2CF442955296629C9
:1042200077290091590510915A0520915B0530912D
:104230005C05CB01BA016027712782279327DFCF66
:104240008695DD2011F0812F8170882309F4DECE60
:10425000802F829586958770880F880F602F6F70EA
:10426000462E512C712C612C082E04C0440C551C78
:10427000661C771C0A94D2F740E050E0BA0104FFB4
:104280000FC04FE050E060E070E004C0440F551FE5
:10429000661F771F8A95D2F7409550956095709567
:1042A000812F869586958370823019F1D8F400911C
:1042B00095051091960520919705309198058130CC
:1042C00069F04429552966297729CB01BA01602371
:1042D0007123822393230E94C91098CE402A512A29
:1042E000622A732ACB01BA01642975298629972984
:1042F000F2CF442955296629772900919505109117
:1043000096052091970530919805CB01BA01602759
:10431000712782279327DFCF1F70DD2029F0812F9F
:104320000E943F11802FD2CE802F0E94EC06812F59
:104330000E9404116BCE802F22EF821609F44EC02A
:10434000281578F030EF831619F191EF891609F4EA
:104350003DC0DD2009F465C0A1103FCE812F8F71D3
:104360003AC0A3EF8A1609F43EC0B4EF8B12F1CF26
:10437000DD2009F44BC01F71812F0E943F11F8E02E
:104380001F9FC0011124836080935405812F23C097
:10439000DD20B9F0A1103ACE1F7161E070E080E03D
:1043A00090E004C0660F771F881F991F1A95D2F7F7
:1043B00000919505109196052091970530919805EB
:1043C000A6CFE1E0EA1508F421CEE6CF812F8F7168
:1043D000DD2009F4ADCF0E943F1118CE812F8F71DF
:1043E000DD20C9F3A5CF60E070E0CB01DD2009F44A
:1043F00072CF1F7161E070E080E090E004C0660F52
:10440000771F881F991F1A95D2F765CF81E00E9408
:10441000271121E02A1508F0F9CD82E00E9427112A
:10442000F5CDAA2059F0893309F082CE3FEF87EE0F
:1044300093E0315080409040E1F778CE812F8F712A
:1044400077CF85E0F701DE01119601900D928A95F4
:10445000E1F7F701228189819A81211183C90E94A4
:104460007606082F87C906311C4509F052CD809188
:10447000E40469E2811165E38EE493E00E9478052B
:10448000ABCC8272F801E35CFC45E431F10508F045
:10449000EBCCE95BFE4C0C94362D1F93CF93DF934E
:1044A0008091EA04807FA9F48091E704882389F051
:1044B00080911C05D091EB046091E5047091E604B5
:1044C000A091E804B091E904C62FC72316E0D813E1
:1044D00004C0DF91CF911F91089590E0109711F0E3
:1044E000CF3F19F401968770F2CF189F9001199F62
:1044F000300D1124F901E451FB4F41814713F2CFF4
:1045000040814613EFCF42814111ECCF438154816A
:104510004A1B5B0B483C510528F78091EA048F70D9
:1045200080618093EA04F901EF50FB4F80818F7026
:104530008061808385EE94E00E94771BDF91CF91AC
:104540001F910C94CD06AF92BF92CF92DF92EF9263
:10455000FF920F931F93CF93DF93CDB7DEB7619791
:104560000FB6F894DEBF0FBECDBF8C0185E0F80119
:10457000DE011D9601900D928A95E1F7F801808188
:104580009181E28025EEA22E24E0B22E6091E80413
:104590007091E9046115710509F43EC13091E5049B
:1045A0004091E604232F24232F3F09F435C1C38013
:1045B000D480F090E704F601E61BF70BFF2009F426
:1045C000FBC02091EA04522F507FE83CF10508F02F
:1045D000BBC0511178C0FE2C491321C038131FC035
:1045E000E1101DC02F7020612093EA04C5010E94D4
:1045F000771B8091EA04F80185838F2D61960FB6B1
:10460000F894DEBF0FBECDBFDF91CF911F910F9108
:10461000FF90EF90DF90CF90BF90AF900895CD289E
:1046200029F0282F29232F3F09F014C120E0F22F71
:10463000F170DF2E20FF3DC020911C054091EB045E
:1046400056E0241315C08D879E878D859E850E9418
:10465000420F292F22952F702230F8F0243020F5B8
:104660009F70F9F0F8019581907FD9F4D12C1FC08B
:1046700030E0529FF001539FF00D1124E451FB4FA5
:104680006181961306C06081861303C06281E612C1
:1046900010C02F5F3F4F2770D4CF9F7011F0882339
:1046A00029F3805E883010F3C8010E94771BFD2C2F
:1046B000A4CFEE2009F4A1CF8091EA048160809319
:1046C000EA04F12C9ACF491312C0381310C0E1103C
:1046D0000EC0F8012583C8010E94771B86E0F8010F
:1046E000A5EEB4E001900D928A95E1F786CF8D8713
:1046F0009E878D859E850E944C0F882309F1EE20B0
:10470000F9F08091EA04803270F02091E504309154
:10471000E60438872F831986DB86CA868C87CE010C
:1047200007960E94771B86E0F801A5EEB4E00190A1
:104730000D928A95E1F70E944D22FF24F3945DCFFC
:10474000C8010E94771BF9CF51110AC085EE94E091
:104750000E94771B86E0F50111928A95E9F7B1CFA7
:1047600049130FC038130DC0E1100BC0F8012583A9
:10477000C8010E94771B86E0F50111928A95E9F73E
:104780003CCF8D879E878D859E850E944C0F882308
:10479000B9F2EE20A9F28091EA04803220F2209151
:1047A000E5043091E6043A8329831B82DD82CC82C2
:1047B0008E83CE010196B5CFE83CF105E0F6FE2CE4
:1047C000EE2009F4BDCF491316C0381314C08091F0
:1047D000EA0480FD83CF982F907F09F47FCFF80102
:1047E0008583903F09F477CF982F907F905F8F70EB
:1047F000892B858370CF8D879E878D859E850E94AE
:104800004C0F811190CF8091EA0481608093EA047B
:10481000C8010E94771BF1CEEE2009F491CF8D875D
:104820009E878D859E850E944C0FF82E882309F463
:1048300087CF86E0F801A5EEB4E001900D928A954D
:10484000E1F78091E5049091E6040E94420F0E94F6
:104850004D22D3CE21E02E25EACE1F93CF93DF93B6
:10486000CDB7DEB767970FB6F894DEBF0FBECDBFEA
:104870004B8B5C8B6D8B7E8B8F8B1A8A198A85E0B4
:10488000FE017396DE011D9601900D928A95E1F767
:1048900086E0FE013D96DE01179601900D928A9505
:1048A000E1F7CE0107960E94A322811112C086E093
:1048B000FE013796DE01119601900D928A95E1F77F
:1048C0008A859B85892B29F08F81988589238F3F45
:1048D000B1F516E080911C059091EB0489131DC081
:1048E00067960FB6F894DEBF0FBECDBFDF91CF91B4
:1048F0001F91089596E0929FD001939FB00D1124CF
:10490000A451BB4FFE01319601900D929A95E1F7AB
:104910008093EB040E94CD06DCCF819FC00111245F
:1049200084519B4F0E94A3228823D1F280911C05C1
:1049300090E001968770992780931C05CBCF20913A
:10494000EB0430E0C90101968770992740911C055E
:104950004817190679F60E944E131092EB04109234
:104960001C0586E0E5EEF4E0DF011D928A95E9F78B
:10497000B0CF8F929F92AF92BF92CF92DF92EF9281
:10498000FF920F931F93CF93DF93809150019091EB
:104990005101892BA1F0809175038F5F809375037E
:1049A00081110DC00E94B81890E09093510180933E
:1049B0005001892B21F40E944B120E949C18C3E6DF
:1049C0008C2EC5E09C2E740100E010E0B7E0CB2EE9
:1049D000C10E812F0E942F198C2D0E942F19812F1B
:1049E0000E948319E70199917E01D12C891729F042
:1049F000FE0131978083DD24D3948C2D0E9483198E
:104A0000F7019681891709F47AC0868381E08D29A0
:104A1000082B0E9460111F5F1730C1F60E94F91A1F
:104A20006091770370917803909378038093770374
:104A30002091760330E0261B370B820F931F6BEF1C
:104A400070E00E940E2DE82E392F182F80937603E8
:104A5000F0907A03FF2009F4DCC310927A03E0910E
:104A60005D05F0915E05AF01425F5F4F20E0ABEF67
:104A7000BA2E6BEF70E0A191AB3F99F0CA2ED12C0A
:104A80008E2D932F1A17E8F18C199D09092E000C11
:104A9000AA0BBB0B4E97A105B105C8F1DF01119719
:104AA000BC924E175F0739F720937A03011102C0B9
:104AB0002111B1C310927903A0915D05B0915E05FB
:104AC00090917A03E7E7F5E080E03191E4012991E4
:104AD0004E01321751F03C913B3FD9F41C93AF018A
:104AE00041505109EA01288391E01196D5E0E5385B
:104AF000FD0759F790937A038093790390C380E080
:104B000086CFDB01AC19BD098A0F9B1FBFCF2F2DAC
:104B1000C8CF81E0EACFD89FF001D99FF00D1124D2
:104B2000E45FFE4F228933892115310511F428EC09
:104B300030E0D89FF001D99FF00D1124E45FFE4FC3
:104B40008681882311F1458556856FB7F894809149
:104B5000CB059091CC05A091CD05B091CE056FBF4E
:104B6000841B950B2817390780F4CD9F7001112401
:104B70008189811105C0C701845F9E4F0E94E607AD
:104B8000C7018E5E9E4F0E940708CF5F8C2F90E07A
:104B900020914E0130914F01281739070CF0BBCFFF
:104BA00047C310925D014093D2055093D3056093A3
:104BB000D4057093D50581E08093600167C380912F
:104BC0000B01C1E018130BC02091D6052370809112
:104BD0000A0190E0C1E02817190609F4C0E0C1708D
:104BE000C0935F01193140F4E12FF0E0E55AFE4C2B
:104BF0000C94362DC11102C0C0E028C040E060E036
:104C000080E00E94A808F8CF80915D01C82FCC0FEA
:104C1000CC0FC80F75E0F72EFC0EEF2CF0E3FF155C
:104C200010F460E3E62E6091D7057091D80580916D
:104C3000D9050E94190BD62EC72EB82ED0E0CE155E
:104C400008F448C0C1E03FE23F15B0F280915D0139
:104C50008F5F80935D01C11122C282E08093600169
:104C600080915F0181111BC2112309F46BC28091F5
:104C7000760581110BC380915F0583FD07C36091A9
:104C800095057091960580919705909198050E94E1
:104C9000D705811145C28CEAE82E80E0F82ED0E0DD
:104CA000C0E0F70164913196749131968491962F0A
:104CB000972B982B09F0F7C120E040E060E0CE018F
:104CC0000E94AA082196F3E0EF0EF11CC033D10533
:104CD00041F7DCC2FE01E35EFC4F808190915E01F2
:104CE000892331F02B2D4D2D6C2DCE010E94AA0869
:104CF0002196A5CF80915D01C82FCC0FCC0FC80F96
:104D000055E0F52EFC0EEF2C80E38F1510F440E3F8
:104D1000E42EC090D805D090D905D091D7056D2F3D
:104D20007C2D8D2D0E94190BB62EA72E982E6091EA
:104D3000DA056D0F7C2D8D2D0E94190BD62EC72EF6
:104D4000882ED0E0CE1530F0C1E0DFE2DF1508F0AC
:104D50007DCF52CFFE01E35EFC4F908180915E01DA
:104D6000892359F0282D4D2D6C2D90FD03C0292D40
:104D70004B2D6A2DCE010E94AA082196E3CF809187
:104D80005D01C82FCC0FCC0FC80F35E0F32EFC0E01
:104D9000DF2CE0E3EF1510F420E3D22EC090D8050D
:104DA000B090D9052091DA0590E4E92E3E2D329F8E
:104DB000312D1124E32ED0E0CD1530F0C1E09FE27B
:104DC0009F1508F043CF18CFFE01E35EFC4F8081B2
:104DD00090915E018923B9F0FE01EE0FFF1FE254AE
:104DE000FD4F808182958F706091D7058E9D600DFB
:104DF00011247C2D8B2D0E94190B462F282F672FF5
:104E0000CE010E94AA082196D7CF80915D01C82FBC
:104E1000CC0FCC0FC80FB5E0FB2EFC0EDF2CD0E37F
:104E2000DF1510F4A0E3DA2EC090D805B090D905B4
:104E30002091DA05F0E4EF2E3E2D329F312D112422
:104E4000E32ED0E0CD1508F0B9CFFE01E35EFC4FB4
:104E5000808190915E018923D9F0FE01EE0FFF1F42
:104E6000E354FD4F6081E69EB0011124E5E07595A5
:104E70006795EA95E1F78091D705680F7C2D8B2D1A
:104E80000E94190B462F282F672FCE010E94AA08D7
:104E90002196D8CF80915D01C82FCC0FCC0FC80FC1
:104EA00045E0F42EFC0EEF2CD0E3DF1510F430E3D8
:104EB000E32ED090D705D091D805C090D905609148
:104EC000DA056695669566958091D2059091D30531
:104ED0000E940F0B0E94980A805887FD8195880FC9
:104EE000282F3C2D239F212D1124822F6D2D7D2FC6
:104EF0000E94190BD62EC72EB82ED0E0CE1508F082
:104F00005DCFFE01E35EFC4F808190915E018923BD
:104F100031F02B2D4D2D6C2DCE010E94AA0821962B
:104F2000EDCF83EA99E00E94E80CC82F8FCE89E785
:104F300099E0F9CF8AE79AE00E948C0CF6CF8BE5D6
:104F40009AE0FACF80E49AE00E940F0CEECF84E260
:104F50009AE0FACF87E799E0E6CF8EE699E0E3CFD3
:104F600085E699E0E0CF8CE499E0DDCF8EE399E02F
:104F7000EBCF87EE9AE0E0CF83E19AE0DDCF8FEFD1
:104F800099E0E2CF81E199E00E94AD0BCECF83EEB4
:104F900098E0FACF8CEA98E0F7CFC1111EC060917B
:104FA000DA0520E1620F08F46FEF8091D20590914D
:104FB000D3050E940F0B6AE070E00E940E2D892B32
:104FC00009F01ACE0E94882D60E370E00E94222D25
:104FD00060915E010E94AF1739CE80915D01C82FAC
:104FE000CC0FCC0FC80F25E0D22EDC0E8D2DD0E3D8
:104FF000DD1508F480E3D0E0E82EF12CCE15DF05B6
:1050000034F0C1E0EFE2ED1508F020CEF5CD60916F
:105010005E01CE010E94AF172196F0CFC1111EC0D4
:105020006091DA0520E1620F08F46FEF8091D205FC
:105030009091D3050E940F0B65E070E00E940E2D49
:10504000892B09F0D9CD0E94882D60E370E00E9481
:10505000222D60915E010E948D17F8CD80915D0137
:10506000C82FCC0FCC0FC80F95E0D92EDC0E8D2D9C
:10507000F0E3FD1508F480E3D0E0E82EF12CCE1526
:10508000DF0534F0C1E02FE22D1508F0DFCDB4CDFF
:1050900060915E01CE010E948D172196F0CF112301
:1050A00009F4F4C0E4CD0E94190BC62E172FD82E98
:1050B0006091D90570E090E080E00E941F3020E010
:1050C00030E04FE753E40E947E2F4B015C016D2DD1
:1050D00070E090E080E00E942130A50194010E94E0
:1050E000AD300E94F02FD62E6C2D70E090E080E065
:1050F0000E942130A50194010E94AD300E94F02F42
:10510000C62E612F70E090E080E00E942130A50162
:1051100094010E94AD300E94F02F2D2D4C2DCFCD4B
:1051200080915E018111B2C040E060E00E94A80859
:10513000ADC010930B018091D605837080930A0156
:105140000E94391683E038CD4091D2055091D305A5
:105150006091D4057091D5052FB7F8948091CB0557
:105160009091CC05A091CD05B091CE052FBF841BA9
:10517000950BA60BB70B4A97A105B10508F486C09D
:105180001092600183C09170892B09F491C08091C5
:105190008003909181038130984780F010929B05A5
:1051A000609195057091960580919705909198056D
:1051B0000E949510109281031092800380918003C9
:1051C0009091810301969093810380938003802FB7
:1051D000DF91CF911F910F91FF90EF90DF90CF90D3
:1051E000BF90AF909F908F9008950E948F1067C0DE
:1051F000892B69F3109281031092800360919505C9
:105200007091960580919705909198050E94951050
:10521000DECF01114FCC8091790381114BCC80916D
:105220004E0190914F01C0E0D6E1019609F0AECC5D
:105230008FB7F8944091CB055091CC056091CD0586
:105240007091CE058FBF40937B0350937C03609396
:105250007D0370937E038091760510E0811108C074
:105260008091D605182F137019F0182F16951695E2
:1052700080916001813009F4A2CC882309F491CC9B
:10528000823009F456CF833009F45ECF80918003D9
:105290009091810320919B05222309F4A9CF0097C7
:1052A00009F071CF0E9486100E9483100E94801026
:1052B000C0917F03CC2309F498CF0E94831081E032
:1052C000C827C0937F0363CFCDB7DEB7C955D109D7
:1052D0000FB6F894DEBF0FBECDBF84B7877F84BF03
:1052E0000FB6F894A8958091600088618093600063
:1052F000109260000FBE80E890E00FB6F8948093A3
:105300006100909361000FBE85B7806885BF85B747
:10531000806885BF0E9471030E943E048091E20074
:1053200084608093E20078948091C1058823A1F085
:105330001091E9001F709091EC00892F817090FD11
:1053400080E8182B1092E9008091E80083FD0E940C
:1053500063131F701093E90082E084BD93E095BD54
:105360009AEF97BD80936E000E94B81890E09093DA
:105370005101809350010E9460110E946F11E3E679
:10538000F5E0A7E7B5E011921D9225E0E137F207BD
:10539000D1F78EE090E00E94982D80935D05909368
:1053A0005E05FC010E962BEF21938E179F07E1F708
:1053B00090E080E00E94E12E8F3E9E4F11F00E940F
:1053C000D3120E949C1889EA8093800089E0809320
:1053D000810024982C983F988AB18F7C8AB96E9866
:1053E000479A8BB180638BB9769A8FE090E00E94E8
:1053F000DB2E60935F057093600580936105909349
:10540000620567708FEF869FB001112475956795CF
:1054100075956795772770938900609388007093DE
:105420008B0060938A0070938D0060938C00909144
:105430005F0594FFE3C080935E010E944B1290E0F1
:1054400080E00E94E12E8F3E9E4F11F00E94D31209
:1054500082E090E00E94D32E809386050E94C512C0
:10546000909372058093710583E090E00E94D32EA3
:10547000682F70E090E080E00E943707609195050A
:105480007091960580919705909198050E949510CE
:105490000E949B080E949B080E94F51782E591E0FC
:1054A000909374058093730598E1C92ED12C87E7FA
:1054B00095E02EE0E22EE80E31E4A32EB12CAC0EE6
:1054C000BD1E22E0A20EB11C8091C105853089F479
:1054D00080E4F82E9924939400E112E18091C105B3
:1054E000853009F48EC00E944E130E94DA07109294
:1054F00076050E94B924E7E8F5E0A7E7B5E010E0FB
:1055000000E0302F8D912191281709F4CCC090E054
:10551000FF24F3942827422F4F2109F4BFC061963E
:105520009FAF619762963FAF62978F2191E009F438
:1055300090E063969FAF63970E94F91A8160782F7D
:1055400065969FAF8EAF659761964FAD61976296F6
:105550005FAD629763966FAD639765968FAD659704
:105560000E942D24F801E957FA4F8081F826F08235
:105570000E94DA0790918505891721F00E94DA07C9
:10558000809385058091C105843009F09DCF80937B
:10559000E9008091E80082FF97CF8091E80090E0D9
:1055A00085FF06C00E949003882309F4A3C091E000
:1055B0008091E8008B778093E800992309F484CFE9
:1055C00019811111B3C080919B05882309F4C9C0CA
:1055D00010929B0581E080939A0522961FAE229738
:1055E00023961FAE23978EEF24968FAF249763E008
:1055F000CE018F5B9F4F0E94600566CF10925E01C7
:105600001CCF40E060E080E00E94A8089092760500
:105610008091C105843009F1109275050FB6F89498
:10562000A895C09260000FBEF092600083B7817FA2
:10563000846083BF83B7816083BF7894889583B784
:105640008E7F83BF0FB6F894A89580916000886123
:1056500080936000109260000FBE8091C005882387
:1056600009F43CCF0E94B81890E0909351018093C8
:1056700050010E9460110E946F11E7E7F5E011925E
:1056800085E0E538F807D9F70E94B924E7E7F5E0A7
:1056900081918111A6C0EE12FBCF20CF9F5FFF0C3E
:1056A000963009F038CF0F5F1F4F0E30110509F00B
:1056B00028CF8FEF66968FAF669767968FAF679705
:1056C00068961FAE68970E94F91A8160782F6A96D3
:1056D0009FAF8EAF6A9766964FAD669767965FAD40
:1056E000679768966FAD68976A968FAD6A970E94C4
:1056F0002D243ECF00E410E0FE0131964F01809151
:10570000E80085FD0AC08091E8008B778093E8006F
:105710000E949003882399F34ACF8091F100F4010D
:1057200081934F010150110951F741CF1130C9F454
:1057300022961FAE229723961FAF23978CE0E4E6B4
:10574000F1E0D50101900D928A95E1F78EEF609618
:105750008FAF60976FE0CE018F5B9F4F0E94600517
:10576000B3CE80919A058823D1F1123041F01330E5
:10577000F9F081E022968FAF229761E039CF6091F6
:1057800095057091960580919705909198050E94D6
:10579000D70522961FAE229723961FAF23972496F4
:1057A0008FAF24978EEF25968FAF259764E020CF9B
:1057B0008A81813041F0882341F08230D1F681E046
:1057C0008093990502C01092990522961FAE2297E8
:1057D00083E023968FAF239780919905E0CF8FEFD9
:1057E000C9CF09BD19BD09B400FEFDCF8091D80015
:1057F0008F7D8093D8008091E00082608093E000EC
:105800008091E00081FDFCCF0E944E1367CE1F9275
:105810001FB61F9211248F939F93AF93BF938091D4
:105820007505811113C08091CB059091CC05A09195
:10583000CD05B091CE054196A11DB11D8093CB053C
:105840009093CC05A093CD05B093CE05BF91AF91B9
:105850009F918F911F901FBE1F9018951092B900B5
:105860008CE08093B8000895EF92FF920F931F93FE
:10587000CF93DF93182FEB011092BC0084EA809342
:10588000BC000E94F91A7C018091BC0087FF27C0F0
:105890008091B900887F883029F08091B900887F95
:1058A0008031D9F51093BB0084E88093BC000E943E
:1058B000F91A8C018091BC0087FF24C02091B900A7
:1058C000287F90E080E02831B1F081E090E0203442
:1058D00011F490E080E09195819591090CC0CF3F43
:1058E000DC0791F20E94F91A8E199F098C179D0707
:1058F00058F28EEF9FEFDF91CF911F910F91FF90A4
:10590000EF900895CF3FDC07A9F20E94F91A801B9F
:10591000910B8C179D0770F2ECCF8FEF9FEFEBCFC1
:105920000F931F93CF93DF93EB018093BB0084E829
:105930008093BC000E94F91A8C018091BC0087FF03
:1059400011C02091B900287F81E090E0283211F445
:1059500090E080E0919581959109DF91CF911F9121
:105960000F910895CF3FDC0741F30E94F91A801B85
:10597000910B8C179D0708F38EEF9FEFEECF0F93DF
:105980001F93CF93DF93EC0184E88093BC000E94C7
:10599000F91A8C018091BC0087FF08C08091BB0080
:1059A00090E0DF91CF911F910F910895CF3FDC07D9
:1059B00089F30E94F91A801B910B8C179D0750F3F5
:1059C0008EEF9FEFEECFCF92DF92EF92FF920F9389
:1059D0001F93CF93DF936B018A017901B9010E9474
:1059E000342CE6010C0D1D1DC017D10761F424E90C
:1059F0002093BC00DF91CF911F910F91FF90EF900A
:105A0000DF90CF90089597FDF2CFB70189910E9462
:105A1000902CEACF84E98093BC000895AA1BBB1B9D
:105A200051E107C0AA1FBB1FA617B70710F0A61B9E
:105A3000B70B881F991F5A95A9F780959095BC01BF
:105A4000CD01089597FB072E16F4009407D077FD3B
:105A500009D00E940E2D07FC05D03EF4909581954B
:105A60009F4F0895709561957F4F0895EE0FFF1F2A
:105A70000590F491E02D09948F929F92AF92BF927E
:105A8000CF92DF92EF92FF92CF93DF93EC01688188
:105A900079818A819B81611571058105910521F4C8
:105AA00064E279ED8BE597E02DE133EF41E050E0E2
:105AB0000E941B2F49015A019B01AC01A7EAB1E4E6
:105AC0000E943A2F6B017C01ACEEB4EFA50194016A
:105AD0000E94482FDC01CB018C0D9D1DAE1DBF1D0A
